:020000040800F2
:100000000808002089010008E1010008E10100085A
:10001000E1010008E1010008E10100080000000022
:10002000000000000000000000000000E1010008E6
:10003000E101000800000000E1010008E101000802
:10004000E1010008E1010008E1010008E101000808
:10005000E1010008E1010008E1010008E1010008F8
:10006000E1010008E1010008E1010008E1010008E8
:10007000E1010008E1010008E1010008E1010008D8
:10008000E1010008E1010008E1010008E1010008C8
:10009000E1010008E1010008E1010008E1010008B8
:1000A000E1010008E1010008E1010008E1010008A8
:1000B000E1010008E1010008E1010008E101000898
:1000C000E1010008E1010008E1010008E101000888
:1000D000E1010008E1010008E1010008E101000878
:1000E000E1010008E1010008E1010008E101000868
:1000F000E1010008E1010008E1010008E101000858
:10010000E1010008E1010008E1010008E101000847
:10011000E1010008E1010008E1010008E101000837
:10012000E1010008E1010008E1010008E101000827
:10013000E1010008E1010008E1010008E101000817
:10014000E1010008E1010008E1010008E101000807
:10015000E1010008E1010008E1010008E1010008F7
:10016000E1010008E1010008E1010008E1010008E7
:10017000E1010008E1010008E1010008E1010008D7
:10018000E1010008E101000880B582B000AF0F4B2B
:100190007B600F4B3B6007E03B681A1D3A607A6852
:1001A000111D796012681A603B680A4A9342F3D3C2
:1001B00009480A494FF000028842B8BF40F8042BB2
:1001C000FADB00F021F80837BD4680BDF4030008D3
:1001D0000000002000000020000000200800002097
:1001E00080B400AFFEE700BF80B483B000AF78609A
:1001F00000BF7B685A1E7A60002BFAD10C37BD46CF
:100200005DF8047B704700BF80B500AF0820012176
:1002100000F028F8104B4FF400421A600E4B0122F8
:100220001A710D4B02225A710B4B00229A710A4B24
:100230000022DA710948084900F032F807484FF403
:10024000004100F0BBF80648FFF7CEFF03484FF42B
:10025000004100F0C1F8F1E700000020000C02406E
:10026000FFFF0F0080B483B000AF78600B46FB70D7
:10027000FB78002B06D00949084B1A6B7B681343A7
:100280000B6306E00549054B1A6B7B68DB431340A3
:100290000B630C37BD465DF8047B704700380240A5
:1002A00080B487B000AF7860396000237B610023A1
:1002B0003B610023FB6000237B6176E07B690122C8
:1002C00002FA03F33B613B681A683B691340FB6029
:1002D000FA683B699A4265D17B681A687B695B0062
:1002E000194603238B40DB431A407B681A607B6806
:1002F0001A683B681B7919467B695B0001FA03F3B6
:100300001A437B681A603B681B79012B03D03B685A
:100310001B79022B2ED17B689A687B695B0019469A
:1003200003238B40DB431A407B689A607B689A68A2
:100330003B685B7919467B695B0001FA03F31A435A
:100340007B689A607B685A687B699BB21946012377
:100350008B40DB431A407B685A607B685B683A6875
:10036000927911467A6992B201FA02F292B21A4374
:100370007B685A607B68DA687B699BB25B0003210B
:1003800001FA03F3DB431A407B68DA607B68DA68C2
:100390003B68DB7919467B695B0001FA03F31A437A
:1003A0007B68DA607B6901337B617B690F2B85D9C0
:1003B0001C37BD465DF8047B704700BF80B483B036
:1003C00000AF78600B467B807B687A881A830C3795
:1003D000BD465DF8047B704780B483B000AF7860A1
:1003E0000B467B807B687A885A830C37BD465DF864
:0403F000047B7047D3
:0400000508000000EF
:00000001FF
